{
  "contractName": "ICO",
  "abi": [
    {
      "inputs": [
        {
          "internalType": "contract Dyawa",
          "name": "_token",
          "type": "address"
        }
      ],
      "stateMutability": "nonpayable",
      "type": "constructor"
    },
    {
      "anonymous": false,
      "inputs": [
        {
          "indexed": false,
          "internalType": "address",
          "name": "account",
          "type": "address"
        },
        {
          "indexed": false,
          "internalType": "address",
          "name": "token",
          "type": "address"
        },
        {
          "indexed": false,
          "internalType": "uint256",
          "name": "amount",
          "type": "uint256"
        },
        {
          "indexed": false,
          "internalType": "uint256",
          "name": "rate",
          "type": "uint256"
        }
      ],
      "name": "TokensPurchased",
      "type": "event"
    },
    {
      "inputs": [],
      "name": "name",
      "outputs": [
        {
          "internalType": "string",
          "name": "",
          "type": "string"
        }
      ],
      "stateMutability": "view",
      "type": "function",
      "constant": true
    },
    {
      "inputs": [],
      "name": "rate",
      "outputs": [
        {
          "internalType": "uint256",
          "name": "",
          "type": "uint256"
        }
      ],
      "stateMutability": "view",
      "type": "function",
      "constant": true
    },
    {
      "inputs": [],
      "name": "token",
      "outputs": [
        {
          "internalType": "contract Dyawa",
          "name": "",
          "type": "address"
        }
      ],
      "stateMutability": "view",
      "type": "function",
      "constant": true
    },
    {
      "inputs": [],
      "name": "buyTokens",
      "outputs": [],
      "stateMutability": "payable",
      "type": "function",
      "payable": true
    },
    {
      "inputs": [],
      "name": "getBalance",
      "outputs": [
        {
          "internalType": "uint256",
          "name": "",
          "type": "uint256"
        }
      ],
      "stateMutability": "view",
      "type": "function",
      "constant": true
    },
    {
      "inputs": [],
      "name": "getTokenAmount",
      "outputs": [
        {
          "internalType": "uint256",
          "name": "",
          "type": "uint256"
        }
      ],
      "stateMutability": "view",
      "type": "function",
      "constant": true
    }
  ],
  "bytecode": "0x60806040526040518060400160405280600381526020017f49434f0000000000000000000000000000000000000000000000000000000000815250600090805190602001906200005192919062000127565b50600a600255733754905761a53f183897160b4f8307a3cac7d57d600360006101000a81548173ffffffffffffffffffffffffffffffffffffffff021916908373ffffffffffffffffffffffffffffffffffffffff160217905550348015620000b957600080fd5b5060405162000bc338038062000bc38339818101604052810190620000df9190620001ee565b80600160006101000a81548173ffffffffffffffffffffffffffffffffffffffff021916908373ffffffffffffffffffffffffffffffffffffffff16021790555050620002e1565b828054620001359062000262565b90600052602060002090601f016020900481019282620001595760008555620001a5565b82601f106200017457805160ff1916838001178555620001a5565b82800160010185558215620001a5579182015b82811115620001a457825182559160200191906001019062000187565b5b509050620001b49190620001b8565b5090565b5b80821115620001d3576000816000905550600101620001b9565b5090565b600081519050620001e881620002c7565b92915050565b6000602082840312156200020157600080fd5b60006200021184828501620001d7565b91505092915050565b6000620002278262000242565b9050919050565b60006200023b826200021a565b9050919050565b600073ffffffffffffffffffffffffffffffffffffffff82169050919050565b600060028204905060018216806200027b57607f821691505b6020821081141562000292576200029162000298565b5b50919050565b7f4e487b7100000000000000000000000000000000000000000000000000000000600052602260045260246000fd5b620002d2816200022e565b8114620002de57600080fd5b50565b6108d280620002f16000396000f3fe6080604052600436106100555760003560e01c806306fdde031461005a57806312065fe0146100855780632c4e722e146100b057806375f91ec8146100db578063d0febe4c14610106578063fc0c546a14610110575b600080fd5b34801561006657600080fd5b5061006f61013b565b60405161007c919061067b565b60405180910390f35b34801561009157600080fd5b5061009a6101c9565b6040516100a7919061069d565b60405180910390f35b3480156100bc57600080fd5b506100c56101d1565b6040516100d2919061069d565b60405180910390f35b3480156100e757600080fd5b506100f06101d7565b6040516100fd919061069d565b60405180910390f35b61010e610289565b005b34801561011c57600080fd5b506101256104cf565b6040516101329190610660565b60405180910390f35b60008054610148906107cd565b80601f0160208091040260200160405190810160405280929190818152602001828054610174906107cd565b80156101c15780601f10610196576101008083540402835291602001916101c1565b820191906000526020600020905b8154815290600101906020018083116101a457829003601f168201915b505050505081565b600047905090565b60025481565b6000600160009054906101000a900473ffffffffffffffffffffffffffffffffffffffff1673ffffffffffffffffffffffffffffffffffffffff166370a08231306040518263ffffffff1660e01b815260040161023491906105d7565b60206040518083038186803b15801561024c57600080fd5b505afa158015610260573d6000803e3d6000fd5b505050506040513d601f19601f820116820180604052508101906102849190610548565b905090565b60006002543461029991906106d4565b905080600160009054906101000a900473ffffffffffffffffffffffffffffffffffffffff1673ffffffffffffffffffffffffffffffffffffffff166370a08231306040518263ffffffff1660e01b81526004016102f791906105d7565b60206040518083038186803b15801561030f57600080fd5b505afa158015610323573d6000803e3d6000fd5b505050506040513d601f19601f820116820180604052508101906103479190610548565b101561035257600080fd5b600160009054906101000a900473ffffffffffffffffffffffffffffffffffffffff1673ffffffffffffffffffffffffffffffffffffffff1663a9059cbb33836040518363ffffffff1660e01b81526004016103af929190610637565b602060405180830381600087803b1580156103c957600080fd5b505af11580156103dd573d6000803e3d6000fd5b505050506040513d601f19601f82011682018060405250810190610401919061051f565b50600360009054906101000a900473ffffffffffffffffffffffffffffffffffffffff1673ffffffffffffffffffffffffffffffffffffffff166108fc349081150290604051600060405180830381858888f1935050505015801561046a573d6000803e3d6000fd5b507f6faf93231a456e552dbc9961f58d9713ee4f2e69d15f1975b050ef0911053a7b33600160009054906101000a900473ffffffffffffffffffffffffffffffffffffffff16836002546040516104c494939291906105f2565b60405180910390a150565b600160009054906101000a900473ffffffffffffffffffffffffffffffffffffffff1681565b6000815190506105048161086e565b92915050565b60008151905061051981610885565b92915050565b60006020828403121561053157600080fd5b600061053f848285016104f5565b91505092915050565b60006020828403121561055a57600080fd5b60006105688482850161050a565b91505092915050565b61057a8161072e565b82525050565b61058981610776565b82525050565b600061059a826106b8565b6105a481856106c3565b93506105b481856020860161079a565b6105bd8161085d565b840191505092915050565b6105d18161076c565b82525050565b60006020820190506105ec6000830184610571565b92915050565b60006080820190506106076000830187610571565b6106146020830186610571565b61062160408301856105c8565b61062e60608301846105c8565b95945050505050565b600060408201905061064c6000830185610571565b61065960208301846105c8565b9392505050565b60006020820190506106756000830184610580565b92915050565b60006020820190508181036000830152610695818461058f565b905092915050565b60006020820190506106b260008301846105c8565b92915050565b600081519050919050565b600082825260208201905092915050565b60006106df8261076c565b91506106ea8361076c565b9250817fffffffffffffffffffffffffffffffffffffffffffffffffffffffffffffffff0483118215151615610723576107226107ff565b5b828202905092915050565b60006107398261074c565b9050919050565b60008115159050919050565b600073ffffffffffffffffffffffffffffffffffffffff82169050919050565b6000819050919050565b600061078182610788565b9050919050565b60006107938261074c565b9050919050565b60005b838110156107b857808201518184015260208101905061079d565b838111156107c7576000848401525b50505050565b600060028204905060018216806107e557607f821691505b602082108114156107f9576107f861082e565b5b50919050565b7f4e487b7100000000000000000000000000000000000000000000000000000000600052601160045260246000fd5b7f4e487b7100000000000000000000000000000000000000000000000000000000600052602260045260246000fd5b6000601f19601f8301169050919050565b61087781610740565b811461088257600080fd5b50565b61088e8161076c565b811461089957600080fd5b5056fea2646970667358221220536b419fd294b44a3525390365e1c1c044e989ffdc26a3061b6c31e6014c3fa364736f6c63430008000033",
  "immutableReferences": {},
  "source": "// SPDX-License-Identifier: MIT\r\npragma solidity ^0.8.0;\r\n\r\nimport \"./Dyawa.sol\";\r\n\r\ncontract ICO {\r\n    string public name = \"ICO\";\r\n\r\n    Dyawa public token;\r\n\r\n\tuint public rate = 10;\r\n\r\n\r\n\t  constructor(Dyawa _token){\r\n\t    token = _token;\r\n\t\t}\r\n\r\n\r\n  event TokensPurchased(\r\n    address account,\r\n    address token,\r\n    uint amount,\r\n    uint rate\r\n  );\r\n\r\n  //  event TokensSold(\r\n  //   address account,\r\n  //   address token,\r\n  //   uint amount,\r\n  //   uint rate\r\n  // );\r\n\r\n  // ...\r\naddress payable EthReceiver = payable(0x3754905761a53f183897160b4F8307a3cac7D57d);\r\n\r\n  function buyTokens() public payable {\r\n    // Calculate the number of tokens to buy\r\n  \r\n    uint tokenAmount = msg.value * rate;\r\n\r\n    // Require that ICO has enough tokens\r\n    require(token.balanceOf(address(this)) >= tokenAmount);\r\n\r\n    // Transfer tokens to the user\r\n    token.transfer(msg.sender, tokenAmount); \r\n    // msg.sender.transfer(msg.value);\r\n    \r\n     EthReceiver.transfer(msg.value);\r\n     \r\n  \r\n    // Emit an event\r\n    emit TokensPurchased(msg.sender, address(token), tokenAmount, rate);\r\n  }\r\n\r\n  \r\n\r\n  function getBalance() public view returns (uint) {\r\n        return address(this).balance;\r\n    }\r\n    \r\n  function getTokenAmount() public view returns (uint) {\r\n        return token.balanceOf(address(this));\r\n    }\r\n\r\n\r\n\t\r\n}\r\n",
  "sourcePath": "C:\\Users\\Nikesh\\Desktop\\Dyawa\\contracts\\ICO.sol",
  "compiler": {
    "name": "solc",
    "version": "0.8.0+commit.c7dfd78e.Emscripten.clang"
  },
  "schemaVersion": "3.4.3",
  "updatedAt": "2021-11-11T13:46:36.750Z",
  "networkType": "ethereum",
  "devdoc": {
    "kind": "dev",
    "methods": {},
    "version": 1
  },
  "userdoc": {
    "kind": "user",
    "methods": {},
    "version": 1
  }
}